{
  "_format": "hh-sol-artifact-1",
  "contractName": "ReputationNFT",
  "sourceName": "contracts/ReputationNFT.sol",
  "abi": [
    {
      "inputs": [
        {
          "internalType": "address",
          "name": "_owner",
          "type": "address"
        },
        {
          "internalType": "string",
          "name": "name",
          "type": "string"
        },
        {
          "internalType": "string",
          "name": "symbol",
          "type": "string"
        },
        {
          "internalType": "string",
          "name": "baseTokenURI",
          "type": "string"
        }
      ],
      "stateMutability": "nonpayable",
      "type": "constructor"
    },
    {
      "inputs": [
        {
          "internalType": "address",
          "name": "sender",
          "type": "address"
        },
        {
          "internalType": "uint256",
          "name": "tokenId",
          "type": "uint256"
        },
        {
          "internalType": "address",
          "name": "owner",
          "type": "address"
        }
      ],
      "name": "ERC721IncorrectOwner",
      "type": "error"
    },
    {
      "inputs": [
        {
          "internalType": "address",
          "name": "operator",
          "type": "address"
        },
        {
          "internalType": "uint256",
          "name": "tokenId",
          "type": "uint256"
        }
      ],
      "name": "ERC721InsufficientApproval",
      "type": "error"
    },
    {
      "inputs": [
        {
          "internalType": "address",
          "name": "approver",
          "type": "address"
        }
      ],
      "name": "ERC721InvalidApprover",
      "type": "error"
    },
    {
      "inputs": [
        {
          "internalType": "address",
          "name": "operator",
          "type": "address"
        }
      ],
      "name": "ERC721InvalidOperator",
      "type": "error"
    },
    {
      "inputs": [
        {
          "internalType": "address",
          "name": "owner",
          "type": "address"
        }
      ],
      "name": "ERC721InvalidOwner",
      "type": "error"
    },
    {
      "inputs": [
        {
          "internalType": "address",
          "name": "receiver",
          "type": "address"
        }
      ],
      "name": "ERC721InvalidReceiver",
      "type": "error"
    },
    {
      "inputs": [
        {
          "internalType": "address",
          "name": "sender",
          "type": "address"
        }
      ],
      "name": "ERC721InvalidSender",
      "type": "error"
    },
    {
      "inputs": [
        {
          "internalType": "uint256",
          "name": "tokenId",
          "type": "uint256"
        }
      ],
      "name": "ERC721NonexistentToken",
      "type": "error"
    },
    {
      "inputs": [
        {
          "internalType": "address",
          "name": "owner",
          "type": "address"
        }
      ],
      "name": "OwnableInvalidOwner",
      "type": "error"
    },
    {
      "inputs": [
        {
          "internalType": "address",
          "name": "account",
          "type": "address"
        }
      ],
      "name": "OwnableUnauthorizedAccount",
      "type": "error"
    },
    {
      "anonymous": false,
      "inputs": [
        {
          "indexed": true,
          "internalType": "address",
          "name": "owner",
          "type": "address"
        },
        {
          "indexed": true,
          "internalType": "address",
          "name": "approved",
          "type": "address"
        },
        {
          "indexed": true,
          "internalType": "uint256",
          "name": "tokenId",
          "type": "uint256"
        }
      ],
      "name": "Approval",
      "type": "event"
    },
    {
      "anonymous": false,
      "inputs": [
        {
          "indexed": true,
          "internalType": "address",
          "name": "owner",
          "type": "address"
        },
        {
          "indexed": true,
          "internalType": "address",
          "name": "operator",
          "type": "address"
        },
        {
          "indexed": false,
          "internalType": "bool",
          "name": "approved",
          "type": "bool"
        }
      ],
      "name": "ApprovalForAll",
      "type": "event"
    },
    {
      "anonymous": false,
      "inputs": [
        {
          "indexed": true,
          "internalType": "address",
          "name": "winner",
          "type": "address"
        },
        {
          "indexed": true,
          "internalType": "address",
          "name": "tournament",
          "type": "address"
        },
        {
          "indexed": true,
          "internalType": "uint256",
          "name": "tokenId",
          "type": "uint256"
        },
        {
          "indexed": false,
          "internalType": "string",
          "name": "tokenURI",
          "type": "string"
        }
      ],
      "name": "BadgeMinted",
      "type": "event"
    },
    {
      "anonymous": false,
      "inputs": [
        {
          "indexed": false,
          "internalType": "string",
          "name": "newBaseURI",
          "type": "string"
        }
      ],
      "name": "BaseURIUpdated",
      "type": "event"
    },
    {
      "anonymous": false,
      "inputs": [
        {
          "indexed": false,
          "internalType": "uint256",
          "name": "_fromTokenId",
          "type": "uint256"
        },
        {
          "indexed": false,
          "internalType": "uint256",
          "name": "_toTokenId",
          "type": "uint256"
        }
      ],
      "name": "BatchMetadataUpdate",
      "type": "event"
    },
    {
      "anonymous": false,
      "inputs": [
        {
          "indexed": false,
          "internalType": "uint256",
          "name": "_tokenId",
          "type": "uint256"
        }
      ],
      "name": "MetadataUpdate",
      "type": "event"
    },
    {
      "anonymous": false,
      "inputs": [
        {
          "indexed": true,
          "internalType": "address",
          "name": "previousOwner",
          "type": "address"
        },
        {
          "indexed": true,
          "internalType": "address",
          "name": "newOwner",
          "type": "address"
        }
      ],
      "name": "OwnershipTransferred",
      "type": "event"
    },
    {
      "anonymous": false,
      "inputs": [
        {
          "indexed": true,
          "internalType": "address",
          "name": "tournament",
          "type": "address"
        },
        {
          "indexed": false,
          "internalType": "string",
          "name": "uri",
          "type": "string"
        }
      ],
      "name": "TournamentBadgeURIUpdated",
      "type": "event"
    },
    {
      "anonymous": false,
      "inputs": [
        {
          "indexed": true,
          "internalType": "address",
          "name": "from",
          "type": "address"
        },
        {
          "indexed": true,
          "internalType": "address",
          "name": "to",
          "type": "address"
        },
        {
          "indexed": true,
          "internalType": "uint256",
          "name": "tokenId",
          "type": "uint256"
        }
      ],
      "name": "Transfer",
      "type": "event"
    },
    {
      "inputs": [
        {
          "internalType": "address",
          "name": "to",
          "type": "address"
        },
        {
          "internalType": "uint256",
          "name": "tokenId",
          "type": "uint256"
        }
      ],
      "name": "approve",
      "outputs": [],
      "stateMutability": "nonpayable",
      "type": "function"
    },
    {
      "inputs": [
        {
          "internalType": "address",
          "name": "owner",
          "type": "address"
        }
      ],
      "name": "balanceOf",
      "outputs": [
        {
          "internalType": "uint256",
          "name": "",
          "type": "uint256"
        }
      ],
      "stateMutability": "view",
      "type": "function"
    },
    {
      "inputs": [
        {
          "internalType": "address[]",
          "name": "winners",
          "type": "address[]"
        },
        {
          "internalType": "address",
          "name": "tournament",
          "type": "address"
        },
        {
          "internalType": "string[]",
          "name": "tokenURIs",
          "type": "string[]"
        }
      ],
      "name": "batchMintBadges",
      "outputs": [
        {
          "internalType": "uint256[]",
          "name": "",
          "type": "uint256[]"
        }
      ],
      "stateMutability": "nonpayable",
      "type": "function"
    },
    {
      "inputs": [
        {
          "internalType": "uint256",
          "name": "tokenId",
          "type": "uint256"
        }
      ],
      "name": "getApproved",
      "outputs": [
        {
          "internalType": "address",
          "name": "",
          "type": "address"
        }
      ],
      "stateMutability": "view",
      "type": "function"
    },
    {
      "inputs": [
        {
          "internalType": "address",
          "name": "winner",
          "type": "address"
        },
        {
          "internalType": "address",
          "name": "tournament",
          "type": "address"
        }
      ],
      "name": "getBadgeTokenId",
      "outputs": [
        {
          "internalType": "uint256",
          "name": "",
          "type": "uint256"
        }
      ],
      "stateMutability": "view",
      "type": "function"
    },
    {
      "inputs": [
        {
          "internalType": "address",
          "name": "winner",
          "type": "address"
        },
        {
          "internalType": "address",
          "name": "tournament",
          "type": "address"
        }
      ],
      "name": "hasBadge",
      "outputs": [
        {
          "internalType": "bool",
          "name": "",
          "type": "bool"
        }
      ],
      "stateMutability": "view",
      "type": "function"
    },
    {
      "inputs": [
        {
          "internalType": "address",
          "name": "owner",
          "type": "address"
        },
        {
          "internalType": "address",
          "name": "operator",
          "type": "address"
        }
      ],
      "name": "isApprovedForAll",
      "outputs": [
        {
          "internalType": "bool",
          "name": "",
          "type": "bool"
        }
      ],
      "stateMutability": "view",
      "type": "function"
    },
    {
      "inputs": [
        {
          "internalType": "address",
          "name": "winner",
          "type": "address"
        },
        {
          "internalType": "address",
          "name": "tournament",
          "type": "address"
        },
        {
          "internalType": "string",
          "name": "tokenURI",
          "type": "string"
        }
      ],
      "name": "mintBadge",
      "outputs": [
        {
          "internalType": "uint256",
          "name": "",
          "type": "uint256"
        }
      ],
      "stateMutability": "nonpayable",
      "type": "function"
    },
    {
      "inputs": [],
      "name": "name",
      "outputs": [
        {
          "internalType": "string",
          "name": "",
          "type": "string"
        }
      ],
      "stateMutability": "view",
      "type": "function"
    },
    {
      "inputs": [],
      "name": "owner",
      "outputs": [
        {
          "internalType": "address",
          "name": "",
          "type": "address"
        }
      ],
      "stateMutability": "view",
      "type": "function"
    },
    {
      "inputs": [
        {
          "internalType": "uint256",
          "name": "tokenId",
          "type": "uint256"
        }
      ],
      "name": "ownerOf",
      "outputs": [
        {
          "internalType": "address",
          "name": "",
          "type": "address"
        }
      ],
      "stateMutability": "view",
      "type": "function"
    },
    {
      "inputs": [],
      "name": "renounceOwnership",
      "outputs": [],
      "stateMutability": "nonpayable",
      "type": "function"
    },
    {
      "inputs": [
        {
          "internalType": "address",
          "name": "from",
          "type": "address"
        },
        {
          "internalType": "address",
          "name": "to",
          "type": "address"
        },
        {
          "internalType": "uint256",
          "name": "tokenId",
          "type": "uint256"
        }
      ],
      "name": "safeTransferFrom",
      "outputs": [],
      "stateMutability": "nonpayable",
      "type": "function"
    },
    {
      "inputs": [
        {
          "internalType": "address",
          "name": "from",
          "type": "address"
        },
        {
          "internalType": "address",
          "name": "to",
          "type": "address"
        },
        {
          "internalType": "uint256",
          "name": "tokenId",
          "type": "uint256"
        },
        {
          "internalType": "bytes",
          "name": "data",
          "type": "bytes"
        }
      ],
      "name": "safeTransferFrom",
      "outputs": [],
      "stateMutability": "nonpayable",
      "type": "function"
    },
    {
      "inputs": [
        {
          "internalType": "address",
          "name": "operator",
          "type": "address"
        },
        {
          "internalType": "bool",
          "name": "approved",
          "type": "bool"
        }
      ],
      "name": "setApprovalForAll",
      "outputs": [],
      "stateMutability": "nonpayable",
      "type": "function"
    },
    {
      "inputs": [
        {
          "internalType": "string",
          "name": "baseURI",
          "type": "string"
        }
      ],
      "name": "setBaseURI",
      "outputs": [],
      "stateMutability": "nonpayable",
      "type": "function"
    },
    {
      "inputs": [
        {
          "internalType": "address",
          "name": "tournament",
          "type": "address"
        },
        {
          "internalType": "string",
          "name": "uri",
          "type": "string"
        }
      ],
      "name": "setTournamentBadgeURI",
      "outputs": [],
      "stateMutability": "nonpayable",
      "type": "function"
    },
    {
      "inputs": [
        {
          "internalType": "bytes4",
          "name": "interfaceId",
          "type": "bytes4"
        }
      ],
      "name": "supportsInterface",
      "outputs": [
        {
          "internalType": "bool",
          "name": "",
          "type": "bool"
        }
      ],
      "stateMutability": "view",
      "type": "function"
    },
    {
      "inputs": [],
      "name": "symbol",
      "outputs": [
        {
          "internalType": "string",
          "name": "",
          "type": "string"
        }
      ],
      "stateMutability": "view",
      "type": "function"
    },
    {
      "inputs": [
        {
          "internalType": "uint256",
          "name": "",
          "type": "uint256"
        }
      ],
      "name": "tokenToTournament",
      "outputs": [
        {
          "internalType": "address",
          "name": "",
          "type": "address"
        }
      ],
      "stateMutability": "view",
      "type": "function"
    },
    {
      "inputs": [
        {
          "internalType": "uint256",
          "name": "tokenId",
          "type": "uint256"
        }
      ],
      "name": "tokenURI",
      "outputs": [
        {
          "internalType": "string",
          "name": "",
          "type": "string"
        }
      ],
      "stateMutability": "view",
      "type": "function"
    },
    {
      "inputs": [],
      "name": "totalSupply",
      "outputs": [
        {
          "internalType": "uint256",
          "name": "",
          "type": "uint256"
        }
      ],
      "stateMutability": "view",
      "type": "function"
    },
    {
      "inputs": [
        {
          "internalType": "address",
          "name": "",
          "type": "address"
        }
      ],
      "name": "tournamentBadgeURIs",
      "outputs": [
        {
          "internalType": "string",
          "name": "",
          "type": "string"
        }
      ],
      "stateMutability": "view",
      "type": "function"
    },
    {
      "inputs": [
        {
          "internalType": "address",
          "name": "",
          "type": "address"
        },
        {
          "internalType": "address",
          "name": "",
          "type": "address"
        }
      ],
      "name": "tournamentWinnerTokens",
      "outputs": [
        {
          "internalType": "uint256",
          "name": "",
          "type": "uint256"
        }
      ],
      "stateMutability": "view",
      "type": "function"
    },
    {
      "inputs": [
        {
          "internalType": "address",
          "name": "from",
          "type": "address"
        },
        {
          "internalType": "address",
          "name": "to",
          "type": "address"
        },
        {
          "internalType": "uint256",
          "name": "tokenId",
          "type": "uint256"
        }
      ],
      "name": "transferFrom",
      "outputs": [],
      "stateMutability": "nonpayable",
      "type": "function"
    },
    {
      "inputs": [
        {
          "internalType": "address",
          "name": "newOwner",
          "type": "address"
        }
      ],
      "name": "transferOwnership",
      "outputs": [],
      "stateMutability": "nonpayable",
      "type": "function"
    }
  ],
  "bytecode": "0x608060405234801561001057600080fd5b506040516122bc3803806122bc83398101604081905261002f916101a7565b838383600061003e83826102e5565b50600161004b82826102e5565b5050506001600160a01b03811661007c57604051631e4fbdf760e01b81526000600482015260240160405180910390fd5b6100858161009c565b50600c61009282826102e5565b50505050506103a3565b600780546001600160a01b038381166001600160a01b0319831681179093556040519116919082907f8be0079c531659141344cd1fd0a4f28419497f9722a3daafe3b4186f6b6457e090600090a35050565b634e487b7160e01b600052604160045260246000fd5b600082601f83011261011557600080fd5b81516001600160401b0381111561012e5761012e6100ee565b604051601f8201601f19908116603f011681016001600160401b038111828210171561015c5761015c6100ee565b60405281815283820160200185101561017457600080fd5b60005b8281101561019357602081860181015183830182015201610177565b506000918101602001919091529392505050565b600080600080608085870312156101bd57600080fd5b84516001600160a01b03811681146101d457600080fd5b60208601519094506001600160401b038111156101f057600080fd5b6101fc87828801610104565b604087015190945090506001600160401b0381111561021a57600080fd5b61022687828801610104565b606087015190935090506001600160401b0381111561024457600080fd5b61025087828801610104565b91505092959194509250565b600181811c9082168061027057607f821691505b60208210810361029057634e487b7160e01b600052602260045260246000fd5b50919050565b601f8211156102e057806000526020600020601f840160051c810160208510156102bd5750805b601f840160051c820191505b818110156102dd57600081556001016102c9565b50505b505050565b81516001600160401b038111156102fe576102fe6100ee565b6103128161030c845461025c565b84610296565b6020601f821160018114610346576000831561032e5750848201515b600019600385901b1c1916600184901b1784556102dd565b600084815260208120601f198516915b828110156103765787850151825560209485019460019092019101610356565b50848210156103945786840151600019600387901b60f8161c191681555b50505050600190811b01905550565b611f0a806103b26000396000f3fe608060405234801561001057600080fd5b506004361061018e5760003560e01c8063831faf36116100de578063a45d016911610097578063c87b56dd11610071578063c87b56dd146103b5578063e985e9c5146103c8578063f2fde38b146103db578063fbf6e241146103ee57600080fd5b8063a45d016914610346578063ab2854ba14610382578063b88d4fde146103a257600080fd5b8063831faf36146102cb5780638da5cb5b146102f45780639509e4831461030557806395d89b411461031857806395dad94314610320578063a22cb4651461033357600080fd5b806321a043d31161014b57806355f804b31161012557806355f804b31461028a5780636352211e1461029d57806370a08231146102b0578063715018a6146102c357600080fd5b806321a043d31461025157806323b872dd1461026457806342842e0e1461027757600080fd5b806301ffc9a71461019357806306fdde03146101bb578063081812fc146101d0578063095ea7b3146101fb5780630c5b80f91461021057806318160ddd14610249575b600080fd5b6101a66101a1366004611716565b610428565b60405190151581526020015b60405180910390f35b6101c3610453565b6040516101b29190611783565b6101e36101de366004611796565b6104e5565b6040516001600160a01b0390911681526020016101b2565b61020e6102093660046117cb565b61050e565b005b61023b61021e3660046117f5565b600b60209081526000928352604080842090915290825290205481565b6040519081526020016101b2565b60085461023b565b61020e61025f3660046118d6565b61051d565b61020e610272366004611923565b6105bc565b61020e610285366004611923565b610647565b61020e610298366004611960565b610667565b6101e36102ab366004611796565b6106b6565b61023b6102be366004611994565b6106c1565b61020e610709565b6101e36102d9366004611796565b600a602052600090815260409020546001600160a01b031681565b6007546001600160a01b03166101e3565b6101c3610313366004611994565b61071d565b6101c36107b7565b61023b61032e3660046119af565b6107c6565b61020e610341366004611a0c565b610945565b6101a66103543660046117f5565b6001600160a01b038082166000908152600b6020908152604080832093861683529290522054151592915050565b610395610390366004611a93565b610950565b6040516101b29190611b18565b61020e6103b0366004611b5b565b610d0b565b6101c36103c3366004611796565b610d23565b6101a66103d63660046117f5565b610e27565b61020e6103e9366004611994565b610e55565b61023b6103fc3660046117f5565b6001600160a01b038082166000908152600b602090815260408083209386168352929052205492915050565b60006001600160e01b03198216632483248360e11b148061044d575061044d82610e93565b92915050565b60606000805461046290611bd6565b80601f016020809104026020016040519081016040528092919081815260200182805461048e90611bd6565b80156104db5780601f106104b0576101008083540402835291602001916104db565b820191906000526020600020905b8154815290600101906020018083116104be57829003601f168201915b5050505050905090565b60006104f082610ee3565b506000828152600460205260409020546001600160a01b031661044d565b610519828233610f1c565b5050565b610525610f29565b6001600160a01b0382166105545760405162461bcd60e51b815260040161054b90611c10565b60405180910390fd5b6001600160a01b03821660009081526009602052604090206105768282611c98565b50816001600160a01b03167f37b920a78d4838a4c8f12626b2444a21f06f25723feda9a9c6f2a875c71b04c6826040516105b09190611783565b60405180910390a25050565b6001600160a01b0382166105e657604051633250574960e11b81526000600482015260240161054b565b60006105f3838333610f56565b9050836001600160a01b0316816001600160a01b031614610641576040516364283d7b60e01b81526001600160a01b038086166004830152602482018490528216604482015260640161054b565b50505050565b61066283838360405180602001604052806000815250610d0b565b505050565b61066f610f29565b600c61067b8282611c98565b507f6741b2fc379fad678116fe3d4d4b9a1a184ab53ba36b86ad0fa66340b1ab41ad816040516106ab9190611783565b60405180910390a150565b600061044d82610ee3565b60006001600160a01b0382166106ed576040516322718ad960e21b81526000600482015260240161054b565b506001600160a01b031660009081526003602052604090205490565b610711610f29565b61071b600061104f565b565b6009602052600090815260409020805461073690611bd6565b80601f016020809104026020016040519081016040528092919081815260200182805461076290611bd6565b80156107af5780601f10610784576101008083540402835291602001916107af565b820191906000526020600020905b81548152906001019060200180831161079257829003601f168201915b505050505081565b60606001805461046290611bd6565b60006107d0610f29565b6001600160a01b0384166108265760405162461bcd60e51b815260206004820152601d60248201527f52657075746174696f6e4e46543a20496e76616c69642077696e6e6572000000604482015260640161054b565b6001600160a01b03831661084c5760405162461bcd60e51b815260040161054b90611c10565b6001600160a01b038084166000908152600b60209081526040808320938816835292905220541561088f5760405162461bcd60e51b815260040161054b90611d56565b6008805490600061089f83611d99565b90915550506008546108b185826110a1565b6108bb81846110bb565b6000818152600a6020908152604080832080546001600160a01b0319166001600160a01b03898116918217909255808552600b8452828520918a168086529190935292819020849055518392907fe041f8528ffe0c5ade58ca5d028d868b256b75d83b3665b9bbf484d6a213c42b90610935908890611783565b60405180910390a4949350505050565b61051933838361110b565b606061095a610f29565b8482146109a95760405162461bcd60e51b815260206004820152601e60248201527f52657075746174696f6e4e46543a204c656e677468206d69736d617463680000604482015260640161054b565b6001600160a01b0384166109cf5760405162461bcd60e51b815260040161054b90611c10565b6000856001600160401b038111156109e9576109e9611828565b604051908082528060200260200182016040528015610a12578160200160208202803683370190505b50905060005b86811015610d00576000888883818110610a3457610a34611dc0565b9050602002016020810190610a499190611994565b6001600160a01b031603610a9f5760405162461bcd60e51b815260206004820152601d60248201527f52657075746174696f6e4e46543a20496e76616c69642077696e6e6572000000604482015260640161054b565b6001600160a01b0386166000908152600b6020526040812090898984818110610aca57610aca611dc0565b9050602002016020810190610adf9190611994565b6001600160a01b0316815260208101919091526040016000205415610b165760405162461bcd60e51b815260040161054b90611d56565b60088054906000610b2683611d99565b9091555050600854610b5e898984818110610b4357610b43611dc0565b9050602002016020810190610b589190611994565b826110a1565b610bc081878785818110610b7457610b74611dc0565b9050602002810190610b869190611dd6565b8080601f0160208091040260200160405190810160405280939291908181526020018383808284376000920191909152506110bb92505050565b6000818152600a6020908152604080832080546001600160a01b0319166001600160a01b038c169081179091558352600b909152812082918b8b86818110610c0a57610c0a611dc0565b9050602002016020810190610c1f9190611994565b6001600160a01b03166001600160a01b031681526020019081526020016000208190555080876001600160a01b03168a8a85818110610c6057610c60611dc0565b9050602002016020810190610c759190611994565b6001600160a01b03167fe041f8528ffe0c5ade58ca5d028d868b256b75d83b3665b9bbf484d6a213c42b898987818110610cb157610cb1611dc0565b9050602002810190610cc39190611dd6565b604051610cd1929190611e1c565b60405180910390a480838381518110610cec57610cec611dc0565b602090810291909101015250600101610a18565b509695505050505050565b610d168484846105bc565b61064133858585856111aa565b6060610d2e82610ee3565b5060008281526006602052604081208054610d4890611bd6565b80601f0160208091040260200160405190810160405280929190818152602001828054610d7490611bd6565b8015610dc15780601f10610d9657610100808354040283529160200191610dc1565b820191906000526020600020905b815481529060010190602001808311610da457829003601f168201915b505050505090506000610dd26112d5565b90508051600003610de4575092915050565b815115610e16578082604051602001610dfe929190611e4b565b60405160208183030381529060405292505050919050565b610e1f846112e4565b949350505050565b6001600160a01b03918216600090815260056020908152604080832093909416825291909152205460ff1690565b610e5d610f29565b6001600160a01b038116610e8757604051631e4fbdf760e01b81526000600482015260240161054b565b610e908161104f565b50565b60006001600160e01b031982166380ac58cd60e01b1480610ec457506001600160e01b03198216635b5e139f60e01b145b8061044d57506301ffc9a760e01b6001600160e01b031983161461044d565b6000818152600260205260408120546001600160a01b03168061044d57604051637e27328960e01b81526004810184905260240161054b565b610662838383600161134c565b6007546001600160a01b0316331461071b5760405163118cdaa760e01b815233600482015260240161054b565b6000828152600260205260408120546001600160a01b0390811690831615610f8357610f83818486611452565b6001600160a01b03811615610fc157610fa060008560008061134c565b6001600160a01b038116600090815260036020526040902080546000190190555b6001600160a01b03851615610ff0576001600160a01b0385166000908152600360205260409020805460010190555b60008481526002602052604080822080546001600160a01b0319166001600160a01b0389811691821790925591518793918516917fddf252ad1be2c89b69c2b068fc378daa952ba7f163c4a11628f55a4df523b3ef91a4949350505050565b600780546001600160a01b038381166001600160a01b0319831681179093556040519116919082907f8be0079c531659141344cd1fd0a4f28419497f9722a3daafe3b4186f6b6457e090600090a35050565b6105198282604051806020016040528060008152506114b6565b60008281526006602052604090206110d38282611c98565b506040518281527ff8e1a15aba9398e019f0b49df1a4fde98ee17ae345cb5f6b5e2c27f5033e8ce79060200160405180910390a15050565b6001600160a01b03821661113d57604051630b61174360e31b81526001600160a01b038316600482015260240161054b565b6001600160a01b03838116600081815260056020908152604080832094871680845294825291829020805460ff191686151590811790915591519182527f17307eab39ab6107e8899845ad3d59bd9653f200f220920489ca2b5937696c31910160405180910390a3505050565b6001600160a01b0383163b156112ce57604051630a85bd0160e11b81526001600160a01b0384169063150b7a02906111ec908890889087908790600401611e7a565b6020604051808303816000875af1925050508015611227575060408051601f3d908101601f1916820190925261122491810190611eb7565b60015b611290573d808015611255576040519150601f19603f3d011682016040523d82523d6000602084013e61125a565b606091505b50805160000361128857604051633250574960e11b81526001600160a01b038516600482015260240161054b565b805160208201fd5b6001600160e01b03198116630a85bd0160e11b146112cc57604051633250574960e11b81526001600160a01b038516600482015260240161054b565b505b5050505050565b6060600c805461046290611bd6565b60606112ef82610ee3565b5060006112fa6112d5565b9050600081511161131a5760405180602001604052806000815250611345565b80611324846114ce565b604051602001611335929190611e4b565b6040516020818303038152906040525b9392505050565b808061136057506001600160a01b03821615155b1561142257600061137084610ee3565b90506001600160a01b0383161580159061139c5750826001600160a01b0316816001600160a01b031614155b80156113af57506113ad8184610e27565b155b156113d85760405163a9fbf51f60e01b81526001600160a01b038416600482015260240161054b565b81156114205783856001600160a01b0316826001600160a01b03167f8c5be1e5ebec7d5bd14f71427d1e84f3dd0314c0f7b2291e5b200ac8c7c3b92560405160405180910390a45b505b5050600090815260046020526040902080546001600160a01b0319166001600160a01b0392909216919091179055565b61145d838383611560565b610662576001600160a01b03831661148b57604051637e27328960e01b81526004810182905260240161054b565b60405163177e802f60e01b81526001600160a01b03831660048201526024810182905260440161054b565b6114c083836115c3565b6106623360008585856111aa565b606060006114db83611628565b60010190506000816001600160401b038111156114fa576114fa611828565b6040519080825280601f01601f191660200182016040528015611524576020820181803683370190505b5090508181016020015b600019016f181899199a1a9b1b9c1cb0b131b232b360811b600a86061a8153600a850494508461152e57509392505050565b60006001600160a01b03831615801590610e1f5750826001600160a01b0316846001600160a01b0316148061159a575061159a8484610e27565b80610e1f5750506000908152600460205260409020546001600160a01b03908116911614919050565b6001600160a01b0382166115ed57604051633250574960e11b81526000600482015260240161054b565b60006115fb83836000610f56565b90506001600160a01b03811615610662576040516339e3563760e11b81526000600482015260240161054b565b60008072184f03e93ff9f4daa797ed6e38ed64bf6a1f0160401b83106116675772184f03e93ff9f4daa797ed6e38ed64bf6a1f0160401b830492506040015b6d04ee2d6d415b85acef81000000008310611693576d04ee2d6d415b85acef8100000000830492506020015b662386f26fc1000083106116b157662386f26fc10000830492506010015b6305f5e10083106116c9576305f5e100830492506008015b61271083106116dd57612710830492506004015b606483106116ef576064830492506002015b600a831061044d5760010192915050565b6001600160e01b031981168114610e9057600080fd5b60006020828403121561172857600080fd5b813561134581611700565b60005b8381101561174e578181015183820152602001611736565b50506000910152565b6000815180845261176f816020860160208601611733565b601f01601f19169290920160200192915050565b6020815260006113456020830184611757565b6000602082840312156117a857600080fd5b5035919050565b80356001600160a01b03811681146117c657600080fd5b919050565b600080604083850312156117de57600080fd5b6117e7836117af565b946020939093013593505050565b6000806040838503121561180857600080fd5b611811836117af565b915061181f602084016117af565b90509250929050565b634e487b7160e01b600052604160045260246000fd5b6000806001600160401b0384111561185857611858611828565b50604051601f19601f85018116603f011681018181106001600160401b038211171561188657611886611828565b60405283815290508082840185101561189e57600080fd5b83836020830137600060208583010152509392505050565b600082601f8301126118c757600080fd5b6113458383356020850161183e565b600080604083850312156118e957600080fd5b6118f2836117af565b915060208301356001600160401b0381111561190d57600080fd5b611919858286016118b6565b9150509250929050565b60008060006060848603121561193857600080fd5b611941846117af565b925061194f602085016117af565b929592945050506040919091013590565b60006020828403121561197257600080fd5b81356001600160401b0381111561198857600080fd5b610e1f848285016118b6565b6000602082840312156119a657600080fd5b611345826117af565b6000806000606084860312156119c457600080fd5b6119cd846117af565b92506119db602085016117af565b915060408401356001600160401b038111156119f657600080fd5b611a02868287016118b6565b9150509250925092565b60008060408385031215611a1f57600080fd5b611a28836117af565b915060208301358015158114611a3d57600080fd5b809150509250929050565b60008083601f840112611a5a57600080fd5b5081356001600160401b03811115611a7157600080fd5b6020830191508360208260051b8501011115611a8c57600080fd5b9250929050565b600080600080600060608688031215611aab57600080fd5b85356001600160401b03811115611ac157600080fd5b611acd88828901611a48565b9096509450611ae09050602087016117af565b925060408601356001600160401b03811115611afb57600080fd5b611b0788828901611a48565b969995985093965092949392505050565b602080825282518282018190526000918401906040840190835b81811015611b50578351835260209384019390920191600101611b32565b509095945050505050565b60008060008060808587031215611b7157600080fd5b611b7a856117af565b9350611b88602086016117af565b92506040850135915060608501356001600160401b03811115611baa57600080fd5b8501601f81018713611bbb57600080fd5b611bca8782356020840161183e565b91505092959194509250565b600181811c90821680611bea57607f821691505b602082108103611c0a57634e487b7160e01b600052602260045260246000fd5b50919050565b60208082526021908201527f52657075746174696f6e4e46543a20496e76616c696420746f75726e616d656e6040820152601d60fa1b606082015260800190565b601f82111561066257806000526020600020601f840160051c81016020851015611c785750805b601f840160051c820191505b818110156112ce5760008155600101611c84565b81516001600160401b03811115611cb157611cb1611828565b611cc581611cbf8454611bd6565b84611c51565b6020601f821160018114611cf95760008315611ce15750848201515b600019600385901b1c1916600184901b1784556112ce565b600084815260208120601f198516915b82811015611d295787850151825560209485019460019092019101611d09565b5084821015611d475786840151600019600387901b60f8161c191681555b50505050600190811b01905550565b60208082526023908201527f52657075746174696f6e4e46543a20426164676520616c7265616479206d696e6040820152621d195960ea1b606082015260800190565b600060018201611db957634e487b7160e01b600052601160045260246000fd5b5060010190565b634e487b7160e01b600052603260045260246000fd5b6000808335601e19843603018112611ded57600080fd5b8301803591506001600160401b03821115611e0757600080fd5b602001915036819003821315611a8c57600080fd5b60208152816020820152818360408301376000818301604090810191909152601f909201601f19160101919050565b60008351611e5d818460208801611733565b835190830190611e71818360208801611733565b01949350505050565b6001600160a01b0385811682528416602082015260408101839052608060608201819052600090611ead90830184611757565b9695505050505050565b600060208284031215611ec957600080fd5b81516113458161170056fea264697066735822122065e14c21439adc279937e791bd88349e0c04193b2f598ed41809147ed8e375bc64736f6c634300081c0033",
  "linkReferences": {},
  "deployedLinkReferences": {}
}