{
  "_format": "hh-sol-artifact-1",
  "contractName": "Tournament",
  "sourceName": "contracts/Tournament.sol",
  "abi": [
    {
      "inputs": [
        {
          "internalType": "address",
          "name": "_token",
          "type": "address"
        },
        {
          "internalType": "uint256",
          "name": "_entryFee",
          "type": "uint256"
        },
        {
          "internalType": "uint256",
          "name": "_maxPlayers",
          "type": "uint256"
        },
        {
          "internalType": "uint256",
          "name": "_topK",
          "type": "uint256"
        },
        {
          "internalType": "uint256",
          "name": "_commitDurationSeconds",
          "type": "uint256"
        },
        {
          "internalType": "uint256",
          "name": "_revealDurationSeconds",
          "type": "uint256"
        },
        {
          "internalType": "address",
          "name": "_creator",
          "type": "address"
        }
      ],
      "stateMutability": "nonpayable",
      "type": "constructor"
    },
    {
      "inputs": [
        {
          "internalType": "address",
          "name": "owner",
          "type": "address"
        }
      ],
      "name": "OwnableInvalidOwner",
      "type": "error"
    },
    {
      "inputs": [
        {
          "internalType": "address",
          "name": "account",
          "type": "address"
        }
      ],
      "name": "OwnableUnauthorizedAccount",
      "type": "error"
    },
    {
      "inputs": [],
      "name": "ReentrancyGuardReentrantCall",
      "type": "error"
    },
    {
      "inputs": [
        {
          "internalType": "address",
          "name": "token",
          "type": "address"
        }
      ],
      "name": "SafeERC20FailedOperation",
      "type": "error"
    },
    {
      "anonymous": false,
      "inputs": [
        {
          "indexed": true,
          "internalType": "address",
          "name": "to",
          "type": "address"
        },
        {
          "indexed": false,
          "internalType": "uint256",
          "name": "amount",
          "type": "uint256"
        }
      ],
      "name": "EmergencyWithdraw",
      "type": "event"
    },
    {
      "anonymous": false,
      "inputs": [
        {
          "indexed": true,
          "internalType": "address",
          "name": "previousOwner",
          "type": "address"
        },
        {
          "indexed": true,
          "internalType": "address",
          "name": "newOwner",
          "type": "address"
        }
      ],
      "name": "OwnershipTransferred",
      "type": "event"
    },
    {
      "anonymous": false,
      "inputs": [
        {
          "indexed": true,
          "internalType": "address",
          "name": "player",
          "type": "address"
        },
        {
          "indexed": true,
          "internalType": "bytes32",
          "name": "commitHash",
          "type": "bytes32"
        },
        {
          "indexed": false,
          "internalType": "uint256",
          "name": "entryFee",
          "type": "uint256"
        }
      ],
      "name": "PlayerJoined",
      "type": "event"
    },
    {
      "anonymous": false,
      "inputs": [
        {
          "indexed": true,
          "internalType": "address",
          "name": "player",
          "type": "address"
        },
        {
          "indexed": false,
          "internalType": "uint256",
          "name": "score",
          "type": "uint256"
        },
        {
          "indexed": true,
          "internalType": "bytes32",
          "name": "commitHash",
          "type": "bytes32"
        }
      ],
      "name": "PlayerRevealed",
      "type": "event"
    },
    {
      "anonymous": false,
      "inputs": [
        {
          "indexed": true,
          "internalType": "address",
          "name": "winner",
          "type": "address"
        },
        {
          "indexed": false,
          "internalType": "uint256",
          "name": "amount",
          "type": "uint256"
        }
      ],
      "name": "PrizeClaimed",
      "type": "event"
    },
    {
      "anonymous": false,
      "inputs": [
        {
          "indexed": false,
          "internalType": "address[]",
          "name": "winners",
          "type": "address[]"
        },
        {
          "indexed": false,
          "internalType": "uint256[]",
          "name": "prizeAmounts",
          "type": "uint256[]"
        }
      ],
      "name": "TournamentFinalized",
      "type": "event"
    },
    {
      "inputs": [],
      "name": "claimPrize",
      "outputs": [],
      "stateMutability": "nonpayable",
      "type": "function"
    },
    {
      "inputs": [],
      "name": "commitEndTime",
      "outputs": [
        {
          "internalType": "uint256",
          "name": "",
          "type": "uint256"
        }
      ],
      "stateMutability": "view",
      "type": "function"
    },
    {
      "inputs": [
        {
          "internalType": "address",
          "name": "",
          "type": "address"
        }
      ],
      "name": "commits",
      "outputs": [
        {
          "internalType": "bytes32",
          "name": "",
          "type": "bytes32"
        }
      ],
      "stateMutability": "view",
      "type": "function"
    },
    {
      "inputs": [],
      "name": "creator",
      "outputs": [
        {
          "internalType": "address",
          "name": "",
          "type": "address"
        }
      ],
      "stateMutability": "view",
      "type": "function"
    },
    {
      "inputs": [
        {
          "internalType": "address",
          "name": "to",
          "type": "address"
        }
      ],
      "name": "emergencyWithdraw",
      "outputs": [],
      "stateMutability": "nonpayable",
      "type": "function"
    },
    {
      "inputs": [],
      "name": "entryFee",
      "outputs": [
        {
          "internalType": "uint256",
          "name": "",
          "type": "uint256"
        }
      ],
      "stateMutability": "view",
      "type": "function"
    },
    {
      "inputs": [],
      "name": "finalize",
      "outputs": [],
      "stateMutability": "nonpayable",
      "type": "function"
    },
    {
      "inputs": [],
      "name": "finalized",
      "outputs": [
        {
          "internalType": "bool",
          "name": "",
          "type": "bool"
        }
      ],
      "stateMutability": "view",
      "type": "function"
    },
    {
      "inputs": [],
      "name": "getPlayerCount",
      "outputs": [
        {
          "internalType": "uint256",
          "name": "",
          "type": "uint256"
        }
      ],
      "stateMutability": "view",
      "type": "function"
    },
    {
      "inputs": [],
      "name": "getPlayers",
      "outputs": [
        {
          "internalType": "address[]",
          "name": "",
          "type": "address[]"
        }
      ],
      "stateMutability": "view",
      "type": "function"
    },
    {
      "inputs": [],
      "name": "getStatus",
      "outputs": [
        {
          "internalType": "uint8",
          "name": "phase",
          "type": "uint8"
        },
        {
          "internalType": "uint256",
          "name": "playerCount",
          "type": "uint256"
        },
        {
          "internalType": "bool",
          "name": "isFull",
          "type": "bool"
        }
      ],
      "stateMutability": "view",
      "type": "function"
    },
    {
      "inputs": [
        {
          "internalType": "address",
          "name": "",
          "type": "address"
        }
      ],
      "name": "hasRevealed",
      "outputs": [
        {
          "internalType": "bool",
          "name": "",
          "type": "bool"
        }
      ],
      "stateMutability": "view",
      "type": "function"
    },
    {
      "inputs": [
        {
          "internalType": "address",
          "name": "player",
          "type": "address"
        }
      ],
      "name": "isPlayer",
      "outputs": [
        {
          "internalType": "bool",
          "name": "",
          "type": "bool"
        }
      ],
      "stateMutability": "view",
      "type": "function"
    },
    {
      "inputs": [
        {
          "internalType": "bytes32",
          "name": "commitHash",
          "type": "bytes32"
        }
      ],
      "name": "join",
      "outputs": [],
      "stateMutability": "nonpayable",
      "type": "function"
    },
    {
      "inputs": [],
      "name": "maxPlayers",
      "outputs": [
        {
          "internalType": "uint256",
          "name": "",
          "type": "uint256"
        }
      ],
      "stateMutability": "view",
      "type": "function"
    },
    {
      "inputs": [],
      "name": "owner",
      "outputs": [
        {
          "internalType": "address",
          "name": "",
          "type": "address"
        }
      ],
      "stateMutability": "view",
      "type": "function"
    },
    {
      "inputs": [
        {
          "internalType": "address",
          "name": "",
          "type": "address"
        }
      ],
      "name": "prizeAmounts",
      "outputs": [
        {
          "internalType": "uint256",
          "name": "",
          "type": "uint256"
        }
      ],
      "stateMutability": "view",
      "type": "function"
    },
    {
      "inputs": [
        {
          "internalType": "address",
          "name": "",
          "type": "address"
        }
      ],
      "name": "prizeClaimed",
      "outputs": [
        {
          "internalType": "bool",
          "name": "",
          "type": "bool"
        }
      ],
      "stateMutability": "view",
      "type": "function"
    },
    {
      "inputs": [],
      "name": "prizePool",
      "outputs": [
        {
          "internalType": "uint256",
          "name": "",
          "type": "uint256"
        }
      ],
      "stateMutability": "view",
      "type": "function"
    },
    {
      "inputs": [],
      "name": "renounceOwnership",
      "outputs": [],
      "stateMutability": "nonpayable",
      "type": "function"
    },
    {
      "inputs": [
        {
          "internalType": "string",
          "name": "secret",
          "type": "string"
        },
        {
          "internalType": "uint256",
          "name": "score",
          "type": "uint256"
        }
      ],
      "name": "reveal",
      "outputs": [],
      "stateMutability": "nonpayable",
      "type": "function"
    },
    {
      "inputs": [],
      "name": "revealEndTime",
      "outputs": [
        {
          "internalType": "uint256",
          "name": "",
          "type": "uint256"
        }
      ],
      "stateMutability": "view",
      "type": "function"
    },
    {
      "inputs": [
        {
          "internalType": "address",
          "name": "",
          "type": "address"
        }
      ],
      "name": "scores",
      "outputs": [
        {
          "internalType": "uint256",
          "name": "",
          "type": "uint256"
        }
      ],
      "stateMutability": "view",
      "type": "function"
    },
    {
      "inputs": [],
      "name": "token",
      "outputs": [
        {
          "internalType": "contract IERC20",
          "name": "",
          "type": "address"
        }
      ],
      "stateMutability": "view",
      "type": "function"
    },
    {
      "inputs": [],
      "name": "topK",
      "outputs": [
        {
          "internalType": "uint256",
          "name": "",
          "type": "uint256"
        }
      ],
      "stateMutability": "view",
      "type": "function"
    },
    {
      "inputs": [
        {
          "internalType": "address",
          "name": "newOwner",
          "type": "address"
        }
      ],
      "name": "transferOwnership",
      "outputs": [],
      "stateMutability": "nonpayable",
      "type": "function"
    },
    {
      "inputs": [
        {
          "internalType": "uint256",
          "name": "",
          "type": "uint256"
        }
      ],
      "name": "winners",
      "outputs": [
        {
          "internalType": "address",
          "name": "",
          "type": "address"
        }
      ],
      "stateMutability": "view",
      "type": "function"
    }
  ],
  "bytecode": "0x61016060405234801561001157600080fd5b5060405161235e38038061235e833981016040819052610030916103af565b6001600055806001600160a01b03811661006557604051631e4fbdf760e01b8152600060048201526024015b60405180910390fd5b61006e81610341565b506001600160a01b0387166100cf5760405162461bcd60e51b815260206004820152602160248201527f546f75726e616d656e743a20496e76616c696420746f6b656e206164647265736044820152607360f81b606482015260840161005c565b600086116101295760405162461bcd60e51b815260206004820152602160248201527f546f75726e616d656e743a20456e74727920666565206d757374206265203e206044820152600360fc1b606482015260840161005c565b60028510156101865760405162461bcd60e51b815260206004820152602360248201527f546f75726e616d656e743a204e656564206174206c65617374203220706c617960448201526265727360e81b606482015260840161005c565b6000841180156101965750848411155b6101e25760405162461bcd60e51b815260206004820152601860248201527f546f75726e616d656e743a20496e76616c696420746f704b0000000000000000604482015260640161005c565b6000831161023e5760405162461bcd60e51b815260206004820152602360248201527f546f75726e616d656e743a20496e76616c696420636f6d6d697420647572617460448201526234b7b760e91b606482015260840161005c565b6000821161029a5760405162461bcd60e51b815260206004820152602360248201527f546f75726e616d656e743a20496e76616c69642072657665616c20647572617460448201526234b7b760e91b606482015260840161005c565b6001600160a01b0381166102f05760405162461bcd60e51b815260206004820152601b60248201527f546f75726e616d656e743a20496e76616c69642063726561746f720000000000604482015260640161005c565b6001600160a01b0380881660805260a087905260c086905260e08590528116610100524261031e8482610415565b61012081905261032f908490610415565b610140525061043c9650505050505050565b600180546001600160a01b038381166001600160a01b0319831681179093556040519116919082907f8be0079c531659141344cd1fd0a4f28419497f9722a3daafe3b4186f6b6457e090600090a35050565b80516001600160a01b03811681146103aa57600080fd5b919050565b600080600080600080600060e0888a0312156103ca57600080fd5b6103d388610393565b602089015160408a015160608b015160808c015160a08d0151949b5092995090975095509350915061040760c08901610393565b905092959891949750929550565b8082018082111561043657634e487b7160e01b600052601160045260246000fd5b92915050565b60805160a05160c05160e051610100516101205161014051611e4a61051460003960008181610401015281816104bd01528181610c7501528181610d5501526111840152600081816102a901528181610ca60152818161110a015261148c015260006101b30152600081816103640152818161098601526109ad01526000818161025901528181610c3701526115cb0152600081816101f701528181611672015281816116ba01526116f001526000818161047e01528181610df001528181610ebb01528181611091015261164e0152611e4a6000f3fe608060405234801561001057600080fd5b50600436106101a95760003560e01c80637b43a8e6116100f9578063b9a5301311610097578063dc8a55c211610071578063dc8a55c214610423578063f2fde38b14610446578063f85b523814610459578063fc0c546a1461047957600080fd5b8063b9a53013146103d1578063c2e52206146103f4578063d49dc1d8146103fc57600080fd5b80638da5cb5b116100d35780638da5cb5b14610386578063a2fb117514610397578063ad677d0b146103aa578063b3f05b97146103bd57600080fd5b80637b43a8e61461032a5780638b5b9ccc1461034a5780638c2a88001461035f57600080fd5b80635a7013aa11610166578063708b473011610140578063708b4730146102e6578063715018a6146102f9578063719ce73e1461030157806376dd110f1461030a57600080fd5b80635a7013aa146102a45780636ff1c9bc146102cb57806370740ac9146102de57600080fd5b806302d05d3f146101ae578063072ea61c146101f257806309c95e10146102275780634bb278f31461024a5780634c2412a2146102545780634e69d5601461027b575b600080fd5b6101d57f000000000000000000000000000000000000000000000000000000000000000081565b6040516001600160a01b0390911681526020015b60405180910390f35b6102197f000000000000000000000000000000000000000000000000000000000000000081565b6040519081526020016101e9565b61023a610235366004611afa565b6104a0565b60405190151581526020016101e9565b6102526104b3565b005b6102197f000000000000000000000000000000000000000000000000000000000000000081565b610283610c20565b6040805160ff909416845260208401929092521515908201526060016101e9565b6102197f000000000000000000000000000000000000000000000000000000000000000081565b6102526102d9366004611afa565b610cde565b610252610f29565b6102526102f4366004611b23565b611100565b610252611435565b61021960025481565b610219610318366004611afa565b60066020526000908152604090205481565b610219610338366004611afa565b60056020526000908152604090205481565b610352611447565b6040516101e99190611be1565b6102197f000000000000000000000000000000000000000000000000000000000000000081565b6001546001600160a01b03166101d5565b6101d56103a5366004611bf4565b611458565b6102526103b8366004611bf4565b611482565b60015461023a90600160a01b900460ff1681565b61023a6103df366004611afa565b60086020526000908152604090205460ff1681565b61021961174f565b6102197f000000000000000000000000000000000000000000000000000000000000000081565b61023a610431366004611afa565b60076020526000908152604090205460ff1681565b610252610454366004611afa565b61175b565b610219610467366004611afa565b600a6020526000908152604090205481565b6101d57f000000000000000000000000000000000000000000000000000000000000000081565b60006104ad600383611796565b92915050565b6104bb6117bb565b7f0000000000000000000000000000000000000000000000000000000000000000421161053a5760405162461bcd60e51b815260206004820152602260248201527f546f75726e616d656e743a2052657665616c207068617365206e6f7420656e64604482015261195960f21b60648201526084015b60405180910390fd5b600154600160a01b900460ff16156105645760405162461bcd60e51b815260040161053190611c0d565b600154600160a01b900460ff161561058e5760405162461bcd60e51b815260040161053190611c0d565b6001805460ff60a01b1916600160a01b17905560006105ad60036117e5565b9050806000036106095760408051600080825260208201908152818301928390527f68ff44d13f4bdec7273c00a05daff92542120ca1ff150ec03eb78312a6e1837e926105fb929190611c8c565b60405180910390a150610c14565b60008167ffffffffffffffff81111561062457610624611c44565b60405190808252806020026020018201604052801561064d578160200160208202803683370190505b50905060008267ffffffffffffffff81111561066b5761066b611c44565b604051908082528060200260200182016040528015610694578160200160208202803683370190505b5090506000805b848110156107615760006106b06003836117ef565b6001600160a01b03811660009081526008602052604090205490915060ff161561075857808584815181106106e7576106e7611cba565b60200260200101906001600160a01b031690816001600160a01b03168152505060066000826001600160a01b03166001600160a01b031681526020019081526020016000205484848151811061073f5761073f611cba565b60209081029190910101528261075481611ce6565b9350505b5060010161069b565b50806000036107bf5760408051600080825260208201908152818301928390527f68ff44d13f4bdec7273c00a05daff92542120ca1ff150ec03eb78312a6e1837e926107ae929190611c8c565b60405180910390a150505050610c14565b60005b6107cd600183611cff565b8110156109815760005b60016107e38385611cff565b6107ed9190611cff565b8110156109785783610800826001611d12565b8151811061081057610810611cba565b602002602001015184828151811061082a5761082a611cba565b6020026020010151101561097057600084828151811061084c5761084c611cba565b60200260200101519050848260016108649190611d12565b8151811061087457610874611cba565b602002602001015185838151811061088e5761088e611cba565b602090810291909101015280856108a6846001611d12565b815181106108b6576108b6611cba565b60200260200101818152505060008683815181106108d6576108d6611cba565b60200260200101519050868360016108ee9190611d12565b815181106108fe576108fe611cba565b602002602001015187848151811061091857610918611cba565b6001600160a01b0390921660209283029190910190910152808761093d856001611d12565b8151811061094d5761094d611cba565b60200260200101906001600160a01b031690816001600160a01b03168152505050505b6001016107d7565b506001016107c2565b5060007f000000000000000000000000000000000000000000000000000000000000000082106109d1577f00000000000000000000000000000000000000000000000000000000000000006109d3565b815b90508067ffffffffffffffff8111156109ee576109ee611c44565b604051908082528060200260200182016040528015610a17578160200160208202803683370190505b508051610a2c91600991602090910190611a80565b5060008167ffffffffffffffff811115610a4857610a48611c44565b604051908082528060200260200182016040528015610a71578160200160208202803683370190505b509050600082118015610a8657506000600254115b15610bd357600082600254610a9b9190611d3b565b9050600083600254610aad9190611d4f565b905060005b84811015610bcf57878181518110610acc57610acc611cba565b602002602001015160098281548110610ae757610ae7611cba565b600091825260209091200180546001600160a01b0319166001600160a01b03929092169190911790558015610b1d576000610b1f565b815b610b299084611d12565b600a60008a8481518110610b3f57610b3f611cba565b60200260200101516001600160a01b03166001600160a01b0316815260200190815260200160002081905550600a6000898381518110610b8157610b81611cba565b60200260200101516001600160a01b03166001600160a01b0316815260200190815260200160002054848281518110610bbc57610bbc611cba565b6020908102919091010152600101610ab2565b5050505b7f68ff44d13f4bdec7273c00a05daff92542120ca1ff150ec03eb78312a6e1837e600982604051610c05929190611d63565b60405180910390a15050505050505b610c1e6001600055565b565b6000806000610c2f60036117e5565b6001549092507f00000000000000000000000000000000000000000000000000000000000000008310159150600160a01b900460ff1615610c735760039250909192565b7f0000000000000000000000000000000000000000000000000000000000000000421115610ca45760039250909192565b7f0000000000000000000000000000000000000000000000000000000000000000421115610cd55760029250909192565b60019250909192565b610ce66117fb565b6001600160a01b038116610d3c5760405162461bcd60e51b815260206004820152601b60248201527f546f75726e616d656e743a20496e76616c6964206164647265737300000000006044820152606401610531565b600154600160a01b900460ff161580610d805750610d7d7f000000000000000000000000000000000000000000000000000000000000000062278d00611d12565b42115b610dd85760405162461bcd60e51b815260206004820152602360248201527f546f75726e616d656e743a20546f6f206561726c7920666f7220656d657267656044820152626e637960e81b6064820152608401610531565b6040516370a0823160e01b81523060048201526000907f00000000000000000000000000000000000000000000000000000000000000006001600160a01b0316906370a0823190602401602060405180830381865afa158015610e3f573d6000803e3d6000fd5b505050506040513d601f19601f82011682018060405250810190610e639190611dc7565b905060008111610eae5760405162461bcd60e51b8152602060048201526016602482015275546f75726e616d656e743a204e6f2062616c616e636560501b6044820152606401610531565b610ee26001600160a01b037f0000000000000000000000000000000000000000000000000000000000000000168383611828565b816001600160a01b03167f5fafa99d0643513820be26656b45130b01e1c03062e1266bf36f88cbd3bd969582604051610f1d91815260200190565b60405180910390a25050565b610f316117bb565b600154600160a01b900460ff16610f8a5760405162461bcd60e51b815260206004820152601960248201527f546f75726e616d656e743a204e6f742066696e616c697a6564000000000000006044820152606401610531565b336000908152600a6020526040902054610ffa5760405162461bcd60e51b815260206004820152602b60248201527f546f75726e616d656e743a204e6f7420612077696e6e6572206f7220616c726560448201526a18591e4818db185a5b595960aa1b6064820152608401610531565b3360009081526007602052604090205460ff16156110645760405162461bcd60e51b815260206004820152602160248201527f546f75726e616d656e743a205072697a6520616c726561647920636c61696d656044820152601960fa1b6064820152608401610531565b336000818152600a60209081526040808320546007909252909120805460ff19166001179055906110c0907f00000000000000000000000000000000000000000000000000000000000000006001600160a01b03169083611828565b60405181815233907f95681e512bc0fe659e195e06c283eada494316f3d801213e48e7101af92bf7709060200160405180910390a250610c1e6001600055565b6111086117bb565b7f000000000000000000000000000000000000000000000000000000000000000042116111825760405162461bcd60e51b815260206004820152602260248201527f546f75726e616d656e743a20436f6d6d6974207068617365206e6f7420656e64604482015261195960f21b6064820152608401610531565b7f00000000000000000000000000000000000000000000000000000000000000004211156111f25760405162461bcd60e51b815260206004820152601e60248201527f546f75726e616d656e743a2052657665616c20706861736520656e64656400006044820152606401610531565b600154600160a01b900460ff161561121c5760405162461bcd60e51b815260040161053190611c0d565b611227600333611796565b6112735760405162461bcd60e51b815260206004820152601860248201527f546f75726e616d656e743a204e6f74206120706c6179657200000000000000006044820152606401610531565b3360009081526008602052604090205460ff16156112d35760405162461bcd60e51b815260206004820152601c60248201527f546f75726e616d656e743a20416c72656164792072657665616c6564000000006044820152606401610531565b3360009081526005602052604090205461132f5760405162461bcd60e51b815260206004820152601b60248201527f546f75726e616d656e743a204e6f20636f6d6d697420666f756e6400000000006044820152606401610531565b60405160009061134b9033903090879087908790602001611de0565b60408051601f198184030181529181528151602092830120336000908152600590935291205490915081146113c25760405162461bcd60e51b815260206004820152601b60248201527f546f75726e616d656e743a20436f6d6d6974206d69736d6174636800000000006044820152606401610531565b33600081815260066020908152604080832086905560088252808320805460ff1916600117905560058252918290205491518581529192917ff77930fb96e73353f40236fc23d5a0fe847054fc3c5cc329000b21877c473726910160405180910390a3506114306001600055565b505050565b61143d6117fb565b610c1e6000611887565b606061145360036118d9565b905090565b6009818154811061146857600080fd5b6000918252602090912001546001600160a01b0316905081565b61148a6117bb565b7f00000000000000000000000000000000000000000000000000000000000000004211156114fa5760405162461bcd60e51b815260206004820152601e60248201527f546f75726e616d656e743a20436f6d6d697420706861736520656e64656400006044820152606401610531565b600154600160a01b900460ff16156115245760405162461bcd60e51b815260040161053190611c0d565b806115715760405162461bcd60e51b815260206004820152601f60248201527f546f75726e616d656e743a20496e76616c696420636f6d6d69742068617368006044820152606401610531565b61157c600333611796565b156115c95760405162461bcd60e51b815260206004820152601a60248201527f546f75726e616d656e743a20416c7265616479206a6f696e65640000000000006044820152606401610531565b7f00000000000000000000000000000000000000000000000000000000000000006115f460036117e5565b106116415760405162461bcd60e51b815260206004820152601b60248201527f546f75726e616d656e743a20546f75726e616d656e742066756c6c00000000006044820152606401610531565b6116966001600160a01b037f00000000000000000000000000000000000000000000000000000000000000001633307f00000000000000000000000000000000000000000000000000000000000000006118e6565b6116a1600333611925565b50336000908152600560205260408120829055600280547f000000000000000000000000000000000000000000000000000000000000000092906116e6908490611d12565b90915550506040517f00000000000000000000000000000000000000000000000000000000000000008152819033907fb584ecd57c2d75518a1c882a69994ce81868b891125c94d315214bce64fea80f9060200160405180910390a361174c6001600055565b50565b600061145360036117e5565b6117636117fb565b6001600160a01b03811661178d57604051631e4fbdf760e01b815260006004820152602401610531565b61174c81611887565b6001600160a01b038116600090815260018301602052604081205415155b9392505050565b6002600054036117de57604051633ee5aeb560e01b815260040160405180910390fd5b6002600055565b60006104ad825490565b60006117b4838361193a565b6001546001600160a01b03163314610c1e5760405163118cdaa760e01b8152336004820152602401610531565b6040516001600160a01b0383811660248301526044820183905261143091859182169063a9059cbb906064015b604051602081830303815290604052915060e01b6020820180516001600160e01b038381831617835250505050611964565b600180546001600160a01b038381166001600160a01b0319831681179093556040519116919082907f8be0079c531659141344cd1fd0a4f28419497f9722a3daafe3b4186f6b6457e090600090a35050565b606060006117b4836119d5565b6040516001600160a01b03848116602483015283811660448301526064820183905261191f9186918216906323b872dd90608401611855565b50505050565b60006117b4836001600160a01b038416611a31565b600082600001828154811061195157611951611cba565b9060005260206000200154905092915050565b600080602060008451602086016000885af180611987576040513d6000823e3d81fd5b50506000513d9150811561199f5780600114156119ac565b6001600160a01b0384163b155b1561191f57604051635274afe760e01b81526001600160a01b0385166004820152602401610531565b606081600001805480602002602001604051908101604052809291908181526020018280548015611a2557602002820191906000526020600020905b815481526020019060010190808311611a11575b50505050509050919050565b6000818152600183016020526040812054611a78575081546001818101845560008481526020808220909301849055845484825282860190935260409020919091556104ad565b5060006104ad565b828054828255906000526020600020908101928215611ad5579160200282015b82811115611ad557825182546001600160a01b0319166001600160a01b03909116178255602090920191600190910190611aa0565b50611ae1929150611ae5565b5090565b5b80821115611ae15760008155600101611ae6565b600060208284031215611b0c57600080fd5b81356001600160a01b03811681146117b457600080fd5b600080600060408486031215611b3857600080fd5b833567ffffffffffffffff811115611b4f57600080fd5b8401601f81018613611b6057600080fd5b803567ffffffffffffffff811115611b7757600080fd5b866020828401011115611b8957600080fd5b6020918201979096509401359392505050565b600081518084526020840193506020830160005b82811015611bd75781516001600160a01b0316865260209586019590910190600101611bb0565b5093949350505050565b6020815260006117b46020830184611b9c565b600060208284031215611c0657600080fd5b5035919050565b6020808252601d908201527f546f75726e616d656e743a20416c72656164792066696e616c697a6564000000604082015260600190565b634e487b7160e01b600052604160045260246000fd5b600081518084526020840193506020830160005b82811015611bd7578151865260209586019590910190600101611c6e565b604081526000611c9f6040830185611b9c565b8281036020840152611cb18185611c5a565b95945050505050565b634e487b7160e01b600052603260045260246000fd5b634e487b7160e01b600052601160045260246000fd5b600060018201611cf857611cf8611cd0565b5060010190565b818103818111156104ad576104ad611cd0565b808201808211156104ad576104ad611cd0565b634e487b7160e01b600052601260045260246000fd5b600082611d4a57611d4a611d25565b500490565b600082611d5e57611d5e611d25565b500690565b6040808252835490820181905260008481526020812090916060840190835b81811015611da95783546001600160a01b0316835260019384019360209093019201611d82565b50508381036020850152611dbd8186611c5a565b9695505050505050565b600060208284031215611dd957600080fd5b5051919050565b6bffffffffffffffffffffffff198660601b168152846014820152828460348301376034920191820152605401939250505056fea26469706673582212205812275e4bf6de30573bc4301afce758d5a19e768dcfab02bb123f3edf82b60f64736f6c634300081c0033",
  "linkReferences": {},
  "deployedLinkReferences": {}
}